{
  "_format": "hh-sol-artifact-1",
  "contractName": "Storage",
  "sourceName": "contracts/Storage.sol",
  "abi": [
    {
      "inputs": [
        {
          "internalType": "uint256",
          "name": "_amt",
          "type": "uint256"
        }
      ],
      "stateMutability": "nonpayable",
      "type": "constructor"
    },
    {
      "inputs": [
        {
          "internalType": "address",
          "name": "",
          "type": "address"
        }
      ],
      "name": "AlreadyRegistered",
      "type": "error"
    },
    {
      "inputs": [
        {
          "internalType": "uint256",
          "name": "",
          "type": "uint256"
        }
      ],
      "name": "InvalidAmt",
      "type": "error"
    },
    {
      "inputs": [],
      "name": "OWNER",
      "outputs": [
        {
          "internalType": "address",
          "name": "",
          "type": "address"
        }
      ],
      "stateMutability": "view",
      "type": "function"
    },
    {
      "inputs": [],
      "name": "UPLOAD_AMT",
      "outputs": [
        {
          "internalType": "uint256",
          "name": "",
          "type": "uint256"
        }
      ],
      "stateMutability": "view",
      "type": "function"
    },
    {
      "inputs": [
        {
          "internalType": "address",
          "name": "",
          "type": "address"
        }
      ],
      "name": "adminToDashboard",
      "outputs": [
        {
          "internalType": "uint256",
          "name": "totalFiles",
          "type": "uint256"
        },
        {
          "internalType": "uint256",
          "name": "totalUsers",
          "type": "uint256"
        }
      ],
      "stateMutability": "view",
      "type": "function"
    },
    {
      "inputs": [
        {
          "internalType": "address",
          "name": "",
          "type": "address"
        },
        {
          "internalType": "uint256",
          "name": "",
          "type": "uint256"
        }
      ],
      "name": "adminToUser",
      "outputs": [
        {
          "internalType": "address",
          "name": "",
          "type": "address"
        }
      ],
      "stateMutability": "view",
      "type": "function"
    },
    {
      "inputs": [],
      "name": "register",
      "outputs": [
        {
          "internalType": "bool",
          "name": "",
          "type": "bool"
        }
      ],
      "stateMutability": "payable",
      "type": "function"
    },
    {
      "inputs": [
        {
          "internalType": "string",
          "name": "_fileType",
          "type": "string"
        },
        {
          "internalType": "uint256",
          "name": "_fileSize",
          "type": "uint256"
        },
        {
          "internalType": "string",
          "name": "_fileURI",
          "type": "string"
        },
        {
          "internalType": "string",
          "name": "_fileName",
          "type": "string"
        },
        {
          "internalType": "uint256",
          "name": "_uploadDate",
          "type": "uint256"
        }
      ],
      "name": "upload",
      "outputs": [
        {
          "internalType": "bool",
          "name": "",
          "type": "bool"
        }
      ],
      "stateMutability": "nonpayable",
      "type": "function"
    },
    {
      "inputs": [
        {
          "internalType": "address",
          "name": "",
          "type": "address"
        }
      ],
      "name": "userInfo",
      "outputs": [
        {
          "internalType": "bool",
          "name": "isReg",
          "type": "bool"
        },
        {
          "internalType": "bytes20",
          "name": "userId",
          "type": "bytes20"
        },
        {
          "internalType": "uint256",
          "name": "fileCount",
          "type": "uint256"
        }
      ],
      "stateMutability": "view",
      "type": "function"
    },
    {
      "inputs": [
        {
          "internalType": "address",
          "name": "",
          "type": "address"
        },
        {
          "internalType": "uint256",
          "name": "",
          "type": "uint256"
        }
      ],
      "name": "userToFile",
      "outputs": [
        {
          "internalType": "string",
          "name": "fileType",
          "type": "string"
        },
        {
          "internalType": "string",
          "name": "fileName",
          "type": "string"
        },
        {
          "internalType": "bytes32",
          "name": "fileId",
          "type": "bytes32"
        },
        {
          "internalType": "uint256",
          "name": "fileSize",
          "type": "uint256"
        },
        {
          "internalType": "string",
          "name": "fileURI",
          "type": "string"
        },
        {
          "internalType": "uint256",
          "name": "fileNumber",
          "type": "uint256"
        },
        {
          "internalType": "uint256",
          "name": "uploadDate",
          "type": "uint256"
        }
      ],
      "stateMutability": "view",
      "type": "function"
    },
    {
      "stateMutability": "payable",
      "type": "receive"
    }
  ],
  "bytecode": "0x60c06040523480156200001157600080fd5b50604051620016b9380380620016b98339818101604052810190620000379190620000ba565b3373ffffffffffffffffffffffffffffffffffffffff1660808173ffffffffffffffffffffffffffffffffffffffff16815250508060a0818152505050620000ec565b600080fd5b6000819050919050565b62000094816200007f565b8114620000a057600080fd5b50565b600081519050620000b48162000089565b92915050565b600060208284031215620000d357620000d26200007a565b5b6000620000e384828501620000a3565b91505092915050565b60805160a05161158b6200012e60003960008181610336015261093701526000818161023b015281816104c00152818161058001526108b4015261158b6000f3fe60806040526004361061007f5760003560e01c80633145994b1161004e5780633145994b14610150578063338e34521461018e5780635790aeb9146101cb578063c718fcbb146101f657610086565b8063117803e31461008b5780631959a002146100b65780631aa3a008146100f55780632ebaa9341461011357610086565b3661008657005b600080fd5b34801561009757600080fd5b506100a0610239565b6040516100ad9190610bc8565b60405180910390f35b3480156100c257600080fd5b506100dd60048036038101906100d89190610c23565b61025d565b6040516100ec93929190610cbf565b60405180910390f35b6100fd6102a1565b60405161010a9190610cf6565b60405180910390f35b34801561011f57600080fd5b5061013a60048036038101906101359190610d3d565b6105f9565b6040516101479190610bc8565b60405180910390f35b34801561015c57600080fd5b5061017760048036038101906101729190610c23565b610647565b604051610185929190610d7d565b60405180910390f35b34801561019a57600080fd5b506101b560048036038101906101b09190610eec565b61066b565b6040516101c29190610cf6565b60405180910390f35b3480156101d757600080fd5b506101e0610935565b6040516101ed9190610fbb565b60405180910390f35b34801561020257600080fd5b5061021d60048036038101906102189190610d3d565b610959565b604051610230979695949392919061106e565b60405180910390f35b7f000000000000000000000000000000000000000000000000000000000000000081565b60006020528060005260406000206000915090508060000160009054906101000a900460ff16908060000160019054906101000a900460601b908060010154905083565b60008060003373ffffffffffffffffffffffffffffffffffffffff1673ffffffffffffffffffffffffffffffffffffffff16815260200190815260200160002060000160009054906101000a900460ff161561033457336040517f45ed80e900000000000000000000000000000000000000000000000000000000815260040161032b9190610bc8565b60405180910390fd5b7f0000000000000000000000000000000000000000000000000000000000000000341461039857346040517f83968c9c00000000000000000000000000000000000000000000000000000000815260040161038f9190610fbb565b60405180910390fd5b60405180606001604052806001151581526020016003336040516020016103bf919061113a565b6040516020818303038152906040526040516103db919061119c565b602060405180830381855afa1580156103f8573d6000803e3d6000fd5b5050506040515160601b6bffffffffffffffffffffffff1916815260200160008152506000803373ffffffffffffffffffffffffffffffffffffffff1673ffffffffffffffffffffffffffffffffffffffff16815260200190815260200160002060008201518160000160006101000a81548160ff02191690831515021790555060208201518160000160016101000a81548173ffffffffffffffffffffffffffffffffffffffff021916908360601c021790555060408201518160010155905050600160007f000000000000000000000000000000000000000000000000000000000000000073ffffffffffffffffffffffffffffffffffffffff1673ffffffffffffffffffffffffffffffffffffffff168152602001908152602001600020339080600181540180825580915050600190039060005260206000200160009091909190916101000a81548173ffffffffffffffffffffffffffffffffffffffff021916908373ffffffffffffffffffffffffffffffffffffffff160217905550600260007f000000000000000000000000000000000000000000000000000000000000000073ffffffffffffffffffffffffffffffffffffffff1673ffffffffffffffffffffffffffffffffffffffff16815260200190815260200160002060010160008154809291906105ed906111e2565b91905055506001905090565b6001602052816000526040600020818154811061061557600080fd5b906000526020600020016000915091509054906101000a900473ffffffffffffffffffffffffffffffffffffffff1681565b60026020528060005260406000206000915090508060000154908060010154905082565b60008060003373ffffffffffffffffffffffffffffffffffffffff1673ffffffffffffffffffffffffffffffffffffffff16815260200190815260200160002060000160009054906101000a900460ff166106fd57336040517f45ed80e90000000000000000000000000000000000000000000000000000000081526004016106f49190610bc8565b60405180910390fd5b6000803373ffffffffffffffffffffffffffffffffffffffff1673ffffffffffffffffffffffffffffffffffffffff168152602001908152602001600020600101600081548092919061074f906111e2565b919050555060008060003373ffffffffffffffffffffffffffffffffffffffff1673ffffffffffffffffffffffffffffffffffffffff16815260200190815260200160002060010154905060006040518060e001604052808981526020018681526020016107bc84610b50565b8152602001888152602001878152602001838152602001858152509050600360003373ffffffffffffffffffffffffffffffffffffffff1673ffffffffffffffffffffffffffffffffffffffff16815260200190815260200160002081908060018154018082558091505060019003906000526020600020906007020160009091909190915060008201518160000190816108579190611436565b50602082015181600101908161086d9190611436565b50604082015181600201556060820151816003015560808201518160040190816108979190611436565b5060a0820151816005015560c082015181600601555050600260007f000000000000000000000000000000000000000000000000000000000000000073ffffffffffffffffffffffffffffffffffffffff1673ffffffffffffffffffffffffffffffffffffffff1681526020019081526020016000206000016000815480929190610921906111e2565b919050555060019250505095945050505050565b7f000000000000000000000000000000000000000000000000000000000000000081565b6003602052816000526040600020818154811061097557600080fd5b90600052602060002090600702016000915091505080600001805461099990611259565b80601f01602080910402602001604051908101604052809291908181526020018280546109c590611259565b8015610a125780601f106109e757610100808354040283529160200191610a12565b820191906000526020600020905b8154815290600101906020018083116109f557829003601f168201915b505050505090806001018054610a2790611259565b80601f0160208091040260200160405190810160405280929190818152602001828054610a5390611259565b8015610aa05780601f10610a7557610100808354040283529160200191610aa0565b820191906000526020600020905b815481529060010190602001808311610a8357829003601f168201915b505050505090806002015490806003015490806004018054610ac190611259565b80601f0160208091040260200160405190810160405280929190818152602001828054610aed90611259565b8015610b3a5780601f10610b0f57610100808354040283529160200191610b3a565b820191906000526020600020905b815481529060010190602001808311610b1d57829003601f168201915b5050505050908060050154908060060154905087565b6000803383604051602001610b66929190611529565b60405160208183030381529060405280519060200120905080915050919050565b600073ffffffffffffffffffffffffffffffffffffffff82169050919050565b6000610bb282610b87565b9050919050565b610bc281610ba7565b82525050565b6000602082019050610bdd6000830184610bb9565b92915050565b6000604051905090565b600080fd5b600080fd5b610c0081610ba7565b8114610c0b57600080fd5b50565b600081359050610c1d81610bf7565b92915050565b600060208284031215610c3957610c38610bed565b5b6000610c4784828501610c0e565b91505092915050565b60008115159050919050565b610c6581610c50565b82525050565b60007fffffffffffffffffffffffffffffffffffffffff00000000000000000000000082169050919050565b610ca081610c6b565b82525050565b6000819050919050565b610cb981610ca6565b82525050565b6000606082019050610cd46000830186610c5c565b610ce16020830185610c97565b610cee6040830184610cb0565b949350505050565b6000602082019050610d0b6000830184610c5c565b92915050565b610d1a81610ca6565b8114610d2557600080fd5b50565b600081359050610d3781610d11565b92915050565b60008060408385031215610d5457610d53610bed565b5b6000610d6285828601610c0e565b9250506020610d7385828601610d28565b9150509250929050565b6000604082019050610d926000830185610cb0565b610d9f6020830184610cb0565b9392505050565b600080fd5b600080fd5b6000601f19601f8301169050919050565b7f4e487b7100000000000000000000000000000000000000000000000000000000600052604160045260246000fd5b610df982610db0565b810181811067ffffffffffffffff82111715610e1857610e17610dc1565b5b80604052505050565b6000610e2b610be3565b9050610e378282610df0565b919050565b600067ffffffffffffffff821115610e5757610e56610dc1565b5b610e6082610db0565b9050602081019050919050565b82818337600083830152505050565b6000610e8f610e8a84610e3c565b610e21565b905082815260208101848484011115610eab57610eaa610dab565b5b610eb6848285610e6d565b509392505050565b600082601f830112610ed357610ed2610da6565b5b8135610ee3848260208601610e7c565b91505092915050565b600080600080600060a08688031215610f0857610f07610bed565b5b600086013567ffffffffffffffff811115610f2657610f25610bf2565b5b610f3288828901610ebe565b9550506020610f4388828901610d28565b945050604086013567ffffffffffffffff811115610f6457610f63610bf2565b5b610f7088828901610ebe565b935050606086013567ffffffffffffffff811115610f9157610f90610bf2565b5b610f9d88828901610ebe565b9250506080610fae88828901610d28565b9150509295509295909350565b6000602082019050610fd06000830184610cb0565b92915050565b600081519050919050565b600082825260208201905092915050565b60005b83811015611010578082015181840152602081019050610ff5565b60008484015250505050565b600061102782610fd6565b6110318185610fe1565b9350611041818560208601610ff2565b61104a81610db0565b840191505092915050565b6000819050919050565b61106881611055565b82525050565b600060e0820190508181036000830152611088818a61101c565b9050818103602083015261109c818961101c565b90506110ab604083018861105f565b6110b86060830187610cb0565b81810360808301526110ca818661101c565b90506110d960a0830185610cb0565b6110e660c0830184610cb0565b98975050505050505050565b60008160601b9050919050565b600061110a826110f2565b9050919050565b600061111c826110ff565b9050919050565b61113461112f82610ba7565b611111565b82525050565b60006111468284611123565b60148201915081905092915050565b600081519050919050565b600081905092915050565b600061117682611155565b6111808185611160565b9350611190818560208601610ff2565b80840191505092915050565b60006111a8828461116b565b915081905092915050565b7f4e487b7100000000000000000000000000000000000000000000000000000000600052601160045260246000fd5b60006111ed82610ca6565b91507fffffffffffffffffffffffffffffffffffffffffffffffffffffffffffffffff820361121f5761121e6111b3565b5b600182019050919050565b7f4e487b7100000000000000000000000000000000000000000000000000000000600052602260045260246000fd5b6000600282049050600182168061127157607f821691505b6020821081036112845761128361122a565b5b50919050565b60008190508160005260206000209050919050565b60006020601f8301049050919050565b600082821b905092915050565b6000600883026112ec7fffffffffffffffffffffffffffffffffffffffffffffffffffffffffffffffff826112af565b6112f686836112af565b95508019841693508086168417925050509392505050565b6000819050919050565b600061133361132e61132984610ca6565b61130e565b610ca6565b9050919050565b6000819050919050565b61134d83611318565b6113616113598261133a565b8484546112bc565b825550505050565b600090565b611376611369565b611381818484611344565b505050565b5b818110156113a55761139a60008261136e565b600181019050611387565b5050565b601f8211156113ea576113bb8161128a565b6113c48461129f565b810160208510156113d3578190505b6113e76113df8561129f565b830182611386565b50505b505050565b600082821c905092915050565b600061140d600019846008026113ef565b1980831691505092915050565b600061142683836113fc565b9150826002028217905092915050565b61143f82610fd6565b67ffffffffffffffff81111561145857611457610dc1565b5b6114628254611259565b61146d8282856113a9565b600060209050601f8311600181146114a0576000841561148e578287015190505b611498858261141a565b865550611500565b601f1984166114ae8661128a565b60005b828110156114d6578489015182556001820191506020850194506020810190506114b1565b868310156114f357848901516114ef601f8916826113fc565b8355505b6001600288020188555050505b505050505050565b6000819050919050565b61152361151e82610ca6565b611508565b82525050565b60006115358285611123565b6014820191506115458284611512565b602082019150819050939250505056fea264697066735822122094a8714974ab3812b043ca446411108df53c734ea28f7d4bed5b9356ada3769064736f6c63430008120033",
  "linkReferences": {},
  "deployedLinkReferences": {}
}